{
  "contractName": "Bank",
  "abi": [
    {
      "inputs": [],
      "payable": true,
      "stateMutability": "payable",
      "type": "constructor"
    },
    {
      "anonymous": false,
      "inputs": [
        {
          "indexed": false,
          "internalType": "address",
          "name": "accountAddress",
          "type": "address"
        },
        {
          "indexed": false,
          "internalType": "uint256",
          "name": "amount",
          "type": "uint256"
        }
      ],
      "name": "DepositMade",
      "type": "event"
    },
    {
      "anonymous": false,
      "inputs": [
        {
          "indexed": false,
          "internalType": "address",
          "name": "senderAddress",
          "type": "address"
        },
        {
          "indexed": false,
          "internalType": "address",
          "name": "receiverAddress",
          "type": "address"
        },
        {
          "indexed": false,
          "internalType": "uint256",
          "name": "amount",
          "type": "uint256"
        }
      ],
      "name": "PaymentMade",
      "type": "event"
    },
    {
      "anonymous": false,
      "inputs": [
        {
          "indexed": false,
          "internalType": "address",
          "name": "accountAddress",
          "type": "address"
        },
        {
          "indexed": false,
          "internalType": "uint256",
          "name": "amount",
          "type": "uint256"
        }
      ],
      "name": "WithdrawalMade",
      "type": "event"
    },
    {
      "constant": true,
      "inputs": [],
      "name": "owner",
      "outputs": [
        {
          "internalType": "address",
          "name": "",
          "type": "address"
        }
      ],
      "payable": false,
      "stateMutability": "view",
      "type": "function"
    },
    {
      "constant": false,
      "inputs": [],
      "name": "deposit",
      "outputs": [
        {
          "internalType": "uint256",
          "name": "",
          "type": "uint256"
        }
      ],
      "payable": true,
      "stateMutability": "payable",
      "type": "function"
    },
    {
      "constant": false,
      "inputs": [
        {
          "internalType": "uint256",
          "name": "withdrawAmount",
          "type": "uint256"
        }
      ],
      "name": "withdraw",
      "outputs": [
        {
          "internalType": "uint256",
          "name": "remainingBal",
          "type": "uint256"
        }
      ],
      "payable": false,
      "stateMutability": "nonpayable",
      "type": "function"
    },
    {
      "constant": true,
      "inputs": [],
      "name": "balanceAmount",
      "outputs": [
        {
          "internalType": "uint256",
          "name": "",
          "type": "uint256"
        }
      ],
      "payable": false,
      "stateMutability": "view",
      "type": "function"
    },
    {
      "constant": true,
      "inputs": [],
      "name": "depositsBalance",
      "outputs": [
        {
          "internalType": "uint256",
          "name": "",
          "type": "uint256"
        }
      ],
      "payable": false,
      "stateMutability": "view",
      "type": "function"
    }
  ],
  "bytecode": "0x608060405233600260006101000a81548173ffffffffffffffffffffffffffffffffffffffff021916908373ffffffffffffffffffffffffffffffffffffffff16021790555060008060006101000a81548160ff021916908360ff16021790555060018060003373ffffffffffffffffffffffffffffffffffffffff1673ffffffffffffffffffffffffffffffffffffffff16815260200190815260200160002060010160006101000a81548160ff0219169083151502179055506000600160003373ffffffffffffffffffffffffffffffffffffffff1673ffffffffffffffffffffffffffffffffffffffff1681526020019081526020016000206000018190555061072b806101116000396000f3fe60806040526004361061004a5760003560e01c8063138fbe711461004f5780632e1a7d4d1461007a5780638da5cb5b146100c9578063d0e30db014610120578063ff7fe4aa1461013e575b600080fd5b34801561005b57600080fd5b50610064610169565b6040518082815260200191505060405180910390f35b34801561008657600080fd5b506100b36004803603602081101561009d57600080fd5b8101908080359060200190929190505050610171565b6040518082815260200191505060405180910390f35b3480156100d557600080fd5b506100de610429565b604051808273ffffffffffffffffffffffffffffffffffffffff1673ffffffffffffffffffffffffffffffffffffffff16815260200191505060405180910390f35b61012861044f565b6040518082815260200191505060405180910390f35b34801561014a57600080fd5b50610153610683565b6040518082815260200191505060405180910390f35b600047905090565b600060011515600160003373ffffffffffffffffffffffffffffffffffffffff1673ffffffffffffffffffffffffffffffffffffffff16815260200190815260200160002060010160009054906101000a900460ff1615151461023c576040517f08c379a00000000000000000000000000000000000000000000000000000000081526004018080602001828103825260178152602001807f4163636f756e7420646f65736e2774206578697374202100000000000000000081525060200191505060405180910390fd5b81600160003373ffffffffffffffffffffffffffffffffffffffff1673ffffffffffffffffffffffffffffffffffffffff1681526020019081526020016000206000015410156102d7576040517f08c379a00000000000000000000000000000000000000000000000000000000081526004018080602001828103825260248152602001806106d36024913960400191505060405180910390fd5b600033905082600160003373ffffffffffffffffffffffffffffffffffffffff1673ffffffffffffffffffffffffffffffffffffffff168152602001908152602001600020600001600082825403925050819055508073ffffffffffffffffffffffffffffffffffffffff166108fc849081150290604051600060405180830381858888f19350505050158015610372573d6000803e3d6000fd5b507fbc158bb64f05d6383aea69bbb0b20c1bbf4b7a18f63359c5649b7c39e29d38843384604051808373ffffffffffffffffffffffffffffffffffffffff1673ffffffffffffffffffffffffffffffffffffffff1681526020018281526020019250505060405180910390a1600160003373ffffffffffffffffffffffffffffffffffffffff1673ffffffffffffffffffffffffffffffffffffffff16815260200190815260200160002060000154915050919050565b600260009054906101000a900473ffffffffffffffffffffffffffffffffffffffff1681565b6000801515600160003373ffffffffffffffffffffffffffffffffffffffff1673ffffffffffffffffffffffffffffffffffffffff16815260200190815260200160002060010160009054906101000a900460ff16151514156105805760018060003373ffffffffffffffffffffffffffffffffffffffff1673ffffffffffffffffffffffffffffffffffffffff16815260200190815260200160002060010160006101000a81548160ff0219169083151502179055506000600160003373ffffffffffffffffffffffffffffffffffffffff1673ffffffffffffffffffffffffffffffffffffffff1681526020019081526020016000206000018190555060008081819054906101000a900460ff168092919060010191906101000a81548160ff021916908360ff160217905550505b34600160003373ffffffffffffffffffffffffffffffffffffffff1673ffffffffffffffffffffffffffffffffffffffff168152602001908152602001600020600001600082825401925050819055507fd15c9547ea5c06670c0010ce19bc32d54682a4b3801ece7f3ab0c3f17106b4bb3334604051808373ffffffffffffffffffffffffffffffffffffffff1673ffffffffffffffffffffffffffffffffffffffff1681526020018281526020019250505060405180910390a1600160003373ffffffffffffffffffffffffffffffffffffffff1673ffffffffffffffffffffffffffffffffffffffff16815260200190815260200160002060000154905090565b600080600160003373ffffffffffffffffffffffffffffffffffffffff1673ffffffffffffffffffffffffffffffffffffffff168152602001908152602001600020600001549050809150509056fe496e73756666696369656e742062616c616e636520696e2042616e6b206163636f756e74a265627a7a7231582016ced33faa300345a2cadbd29a8480d1ef651d06c4ac663ccc27538f0cfb440464736f6c63430005100032",
  "source": "pragma solidity ^0.5.0;\n\ncontract Bank {\n    uint8 private clientCount;\n    struct account{\n        uint balance;\n        bool isValid;\n    }\n    mapping (address => account) internal accounts;\n    address public owner;\n\n    event DepositMade(address  accountAddress, uint amount);\n    event WithdrawalMade(address accountAddress, uint amount);\n    event PaymentMade(address senderAddress,address receiverAddress,uint amount);\n\n    constructor() public payable {\n        owner = msg.sender;\n        clientCount = 0;\n        accounts[msg.sender].isValid=true;\n        accounts[msg.sender].balance=0;\n    }\n\n    function createAccount(address _client) internal {\n        accounts[_client].isValid=true;\n        accounts[_client].balance=0;\n    }\n\n    function deposit() public payable returns (uint) {\n        if(accounts[msg.sender].isValid == false){\n            //Setting up the account\n            accounts[msg.sender].isValid=true;\n            accounts[msg.sender].balance=0;\n            clientCount++;\n        }\n        accounts[msg.sender].balance += msg.value;\n        emit DepositMade(msg.sender, msg.value);\n        return accounts[msg.sender].balance;\n    }\n\n    function withdraw(uint withdrawAmount) public returns (uint remainingBal) {\n        require(accounts[msg.sender].isValid == true,\"Account doesn't exist !\");\n        require(accounts[msg.sender].balance >= withdrawAmount, 'Insufficient balance in Bank account');\n        \n        address payable _client = msg.sender;\n        accounts[msg.sender].balance -= withdrawAmount;\n        _client.transfer(withdrawAmount);\n        emit WithdrawalMade(msg.sender, withdrawAmount);\n\n        return accounts[msg.sender].balance;\n    }\n\n    function pay(address payable _sender,address _receiver,uint amount) internal {\n        require(accounts[_sender].isValid==true,\"Sender account doesn't exist\");\n        require(accounts[_sender].balance >= amount,\"Insufficient balance !\");\n        if(accounts[_receiver].isValid == false){\n            accounts[_receiver].isValid=true;\n            accounts[_receiver].balance=0;\n        }\n        \n        accounts[_sender].balance -= amount;\n        accounts[_receiver].balance  += amount;\n        emit PaymentMade(_sender,_receiver,amount);\n  }\n  \n     function balanceAmount() public view returns (uint) {\n        uint bal = accounts[msg.sender].balance;\n        return bal;\n    }\n\n    function depositsBalance() public view returns (uint) {\n        return address(this).balance;\n    }\n\n}",
  "sourcePath": "/home/apoorv/D/blockp/src/contracts/Bank.sol",
  "compiler": {
    "name": "solc",
    "version": "0.5.16+commit.9c3226ce.Emscripten.clang"
  },
  "schemaVersion": "3.4.7",
  "updatedAt": "2022-05-01T10:22:48.704Z",
  "networkType": "ethereum",
  "devdoc": {
    "methods": {}
  },
  "userdoc": {
    "methods": {}
  }
}