{
  "contractName": "Bank",
  "abi": [
    {
      "inputs": [],
      "payable": true,
      "stateMutability": "payable",
      "type": "constructor"
    },
    {
      "anonymous": false,
      "inputs": [
        {
          "indexed": false,
          "internalType": "address",
          "name": "accountAddress",
          "type": "address"
        },
        {
          "indexed": false,
          "internalType": "uint256",
          "name": "amount",
          "type": "uint256"
        }
      ],
      "name": "DepositMade",
      "type": "event"
    },
    {
      "anonymous": false,
      "inputs": [
        {
          "indexed": false,
          "internalType": "address",
          "name": "senderAddress",
          "type": "address"
        },
        {
          "indexed": false,
          "internalType": "address",
          "name": "receiverAddress",
          "type": "address"
        },
        {
          "indexed": false,
          "internalType": "uint256",
          "name": "amount",
          "type": "uint256"
        }
      ],
      "name": "PaymentMade",
      "type": "event"
    },
    {
      "anonymous": false,
      "inputs": [
        {
          "indexed": false,
          "internalType": "address",
          "name": "accountAddress",
          "type": "address"
        },
        {
          "indexed": false,
          "internalType": "uint256",
          "name": "amount",
          "type": "uint256"
        }
      ],
      "name": "WithdrawalMade",
      "type": "event"
    },
    {
      "constant": true,
      "inputs": [],
      "name": "owner",
      "outputs": [
        {
          "internalType": "address",
          "name": "",
          "type": "address"
        }
      ],
      "payable": false,
      "stateMutability": "view",
      "type": "function"
    },
    {
      "constant": false,
      "inputs": [],
      "name": "deposit",
      "outputs": [
        {
          "internalType": "uint256",
          "name": "",
          "type": "uint256"
        }
      ],
      "payable": true,
      "stateMutability": "payable",
      "type": "function"
    },
    {
      "constant": false,
      "inputs": [
        {
          "internalType": "uint256",
          "name": "withdrawAmount",
          "type": "uint256"
        }
      ],
      "name": "withdraw",
      "outputs": [
        {
          "internalType": "uint256",
          "name": "remainingBal",
          "type": "uint256"
        }
      ],
      "payable": false,
      "stateMutability": "nonpayable",
      "type": "function"
    },
    {
      "constant": true,
      "inputs": [
        {
          "internalType": "address",
          "name": "_client",
          "type": "address"
        }
      ],
      "name": "balance",
      "outputs": [
        {
          "internalType": "uint256",
          "name": "",
          "type": "uint256"
        }
      ],
      "payable": false,
      "stateMutability": "view",
      "type": "function"
    }
  ],
  "bytecode": "0x608060405233600260006101000a81548173ffffffffffffffffffffffffffffffffffffffff021916908373ffffffffffffffffffffffffffffffffffffffff16021790555060008060006101000a81548160ff021916908360ff16021790555060018060003373ffffffffffffffffffffffffffffffffffffffff1673ffffffffffffffffffffffffffffffffffffffff16815260200190815260200160002060010160006101000a81548160ff0219169083151502179055506000600160003373ffffffffffffffffffffffffffffffffffffffff1673ffffffffffffffffffffffffffffffffffffffff16815260200190815260200160002060000181905550610730806101116000396000f3fe60806040526004361061003f5760003560e01c80632e1a7d4d146100445780638da5cb5b14610093578063d0e30db0146100ea578063e3d670d714610108575b600080fd5b34801561005057600080fd5b5061007d6004803603602081101561006757600080fd5b810190808035906020019092919050505061016d565b6040518082815260200191505060405180910390f35b34801561009f57600080fd5b506100a8610425565b604051808273ffffffffffffffffffffffffffffffffffffffff1673ffffffffffffffffffffffffffffffffffffffff16815260200191505060405180910390f35b6100f261044b565b6040518082815260200191505060405180910390f35b34801561011457600080fd5b506101576004803603602081101561012b57600080fd5b81019080803573ffffffffffffffffffffffffffffffffffffffff1690602001909291905050506105e6565b6040518082815260200191505060405180910390f35b600060011515600160003373ffffffffffffffffffffffffffffffffffffffff1673ffffffffffffffffffffffffffffffffffffffff16815260200190815260200160002060010160009054906101000a900460ff16151514610238576040517f08c379a00000000000000000000000000000000000000000000000000000000081526004018080602001828103825260178152602001807f4163636f756e7420646f65736e2774206578697374202100000000000000000081525060200191505060405180910390fd5b81600160003373ffffffffffffffffffffffffffffffffffffffff1673ffffffffffffffffffffffffffffffffffffffff1681526020019081526020016000206000015410156102d3576040517f08c379a00000000000000000000000000000000000000000000000000000000081526004018080602001828103825260248152602001806106d86024913960400191505060405180910390fd5b600033905082600160003373ffffffffffffffffffffffffffffffffffffffff1673ffffffffffffffffffffffffffffffffffffffff168152602001908152602001600020600001600082825403925050819055508073ffffffffffffffffffffffffffffffffffffffff166108fc849081150290604051600060405180830381858888f1935050505015801561036e573d6000803e3d6000fd5b507fbc158bb64f05d6383aea69bbb0b20c1bbf4b7a18f63359c5649b7c39e29d38843384604051808373ffffffffffffffffffffffffffffffffffffffff1673ffffffffffffffffffffffffffffffffffffffff1681526020018281526020019250505060405180910390a1600160003373ffffffffffffffffffffffffffffffffffffffff1673ffffffffffffffffffffffffffffffffffffffff16815260200190815260200160002060000154915050919050565b600260009054906101000a900473ffffffffffffffffffffffffffffffffffffffff1681565b6000801515600160003373ffffffffffffffffffffffffffffffffffffffff1673ffffffffffffffffffffffffffffffffffffffff16815260200190815260200160002060010160009054906101000a900460ff16151514156104e3576104b133610632565b60008081819054906101000a900460ff168092919060010191906101000a81548160ff021916908360ff160217905550505b34600160003373ffffffffffffffffffffffffffffffffffffffff1673ffffffffffffffffffffffffffffffffffffffff168152602001908152602001600020600001600082825401925050819055507fd15c9547ea5c06670c0010ce19bc32d54682a4b3801ece7f3ab0c3f17106b4bb3334604051808373ffffffffffffffffffffffffffffffffffffffff1673ffffffffffffffffffffffffffffffffffffffff1681526020018281526020019250505060405180910390a1600160003373ffffffffffffffffffffffffffffffffffffffff1673ffffffffffffffffffffffffffffffffffffffff16815260200190815260200160002060000154905090565b6000600160008373ffffffffffffffffffffffffffffffffffffffff1673ffffffffffffffffffffffffffffffffffffffff168152602001908152602001600020600001549050919050565b60018060008373ffffffffffffffffffffffffffffffffffffffff1673ffffffffffffffffffffffffffffffffffffffff16815260200190815260200160002060010160006101000a81548160ff0219169083151502179055506000600160008373ffffffffffffffffffffffffffffffffffffffff1673ffffffffffffffffffffffffffffffffffffffff168152602001908152602001600020600001819055505056fe496e73756666696369656e742062616c616e636520696e2042616e6b206163636f756e74a265627a7a7231582076ad0db0cec55d2efdf05fa73a70be6649c91befd04d55f8e5b3a08b38998f0264736f6c63430005100032",
  "source": "pragma solidity ^0.5.0;\n\ncontract Bank {\n    uint8 private clientCount;\n    struct account{\n        uint balance;\n        bool isValid;\n    }\n    mapping (address => account) internal accounts;\n    address public owner;\n\n    event DepositMade(address  accountAddress, uint amount);\n    event WithdrawalMade(address accountAddress, uint amount);\n    event PaymentMade(address senderAddress,address receiverAddress,uint amount);\n\n    constructor() public payable {\n        owner = msg.sender;\n        clientCount = 0;\n        accounts[msg.sender].isValid=true;\n        accounts[msg.sender].balance=0;\n    }\n\n    function createAccount(address _client) internal {\n        accounts[_client].isValid=true;\n        accounts[_client].balance=0;\n    }\n\n    function deposit() public payable returns (uint) {\n        if(accounts[msg.sender].isValid == false){\n            //Setting up the account\n            createAccount(msg.sender);\n            clientCount++;\n        }\n        accounts[msg.sender].balance += msg.value;\n        emit DepositMade(msg.sender, msg.value);\n        return accounts[msg.sender].balance;\n    }\n\n    function withdraw(uint withdrawAmount) public returns (uint remainingBal) {\n        require(accounts[msg.sender].isValid == true,\"Account doesn't exist !\");\n        require(accounts[msg.sender].balance >= withdrawAmount, 'Insufficient balance in Bank account');\n        \n        address payable _client = msg.sender;\n        accounts[msg.sender].balance -= withdrawAmount;\n        _client.transfer(withdrawAmount);\n        emit WithdrawalMade(msg.sender, withdrawAmount);\n\n        return accounts[msg.sender].balance;\n    }\n\n    function pay(address payable _sender,address _receiver,uint amount) internal {\n        require(accounts[_sender].isValid==true,\"Sender account doesn't exist\");\n        require(accounts[_sender].balance >= amount,\"Insufficient balance !\");\n        if(accounts[_receiver].isValid == false){\n            createAccount(_receiver);\n        }\n        \n        accounts[_sender].balance -= amount;\n        accounts[_receiver].balance  += amount;\n        emit PaymentMade(_sender,_receiver,amount);\n  }\n  \n    function balance(address _client) public view returns (uint) {\n        return accounts[_client].balance;\n    }\n}",
  "sourcePath": "/home/apoorv/D/blockp/src/contracts/Bank.sol",
  "compiler": {
    "name": "solc",
    "version": "0.5.16+commit.9c3226ce.Emscripten.clang"
  },
  "schemaVersion": "3.4.7",
  "updatedAt": "2022-05-01T01:55:31.899Z",
  "networkType": "ethereum",
  "devdoc": {
    "methods": {}
  },
  "userdoc": {
    "methods": {}
  }
}