{
  "contractName": "DCSS",
  "abi": [
    {
      "inputs": [],
      "payable": false,
      "stateMutability": "nonpayable",
      "type": "constructor"
    },
    {
      "anonymous": false,
      "inputs": [
        {
          "indexed": false,
          "internalType": "uint256",
          "name": "id",
          "type": "uint256"
        },
        {
          "indexed": false,
          "internalType": "string",
          "name": "hash",
          "type": "string"
        },
        {
          "indexed": false,
          "internalType": "uint256",
          "name": "fee",
          "type": "uint256"
        },
        {
          "indexed": false,
          "internalType": "address payable",
          "name": "creator",
          "type": "address"
        }
      ],
      "name": "VideoTipped",
      "type": "event"
    },
    {
      "anonymous": false,
      "inputs": [
        {
          "indexed": false,
          "internalType": "uint256",
          "name": "id",
          "type": "uint256"
        },
        {
          "indexed": false,
          "internalType": "string",
          "name": "hash",
          "type": "string"
        },
        {
          "indexed": false,
          "internalType": "string",
          "name": "description",
          "type": "string"
        },
        {
          "indexed": false,
          "internalType": "string",
          "name": "title",
          "type": "string"
        },
        {
          "indexed": false,
          "internalType": "string",
          "name": "image",
          "type": "string"
        },
        {
          "indexed": false,
          "internalType": "uint256",
          "name": "fee",
          "type": "uint256"
        },
        {
          "indexed": false,
          "internalType": "address payable",
          "name": "creator",
          "type": "address"
        }
      ],
      "name": "VideoUploaded",
      "type": "event"
    },
    {
      "constant": true,
      "inputs": [],
      "name": "name",
      "outputs": [
        {
          "internalType": "string",
          "name": "",
          "type": "string"
        }
      ],
      "payable": false,
      "stateMutability": "view",
      "type": "function"
    },
    {
      "constant": true,
      "inputs": [],
      "name": "numVideos",
      "outputs": [
        {
          "internalType": "uint256",
          "name": "",
          "type": "uint256"
        }
      ],
      "payable": false,
      "stateMutability": "view",
      "type": "function"
    },
    {
      "constant": true,
      "inputs": [
        {
          "internalType": "uint256",
          "name": "",
          "type": "uint256"
        }
      ],
      "name": "videos",
      "outputs": [
        {
          "internalType": "uint256",
          "name": "id",
          "type": "uint256"
        },
        {
          "internalType": "string",
          "name": "hash",
          "type": "string"
        },
        {
          "internalType": "string",
          "name": "description",
          "type": "string"
        },
        {
          "internalType": "string",
          "name": "title",
          "type": "string"
        },
        {
          "internalType": "string",
          "name": "image",
          "type": "string"
        },
        {
          "internalType": "uint256",
          "name": "fee",
          "type": "uint256"
        },
        {
          "internalType": "uint256",
          "name": "earned",
          "type": "uint256"
        },
        {
          "internalType": "address payable",
          "name": "creator",
          "type": "address"
        }
      ],
      "payable": false,
      "stateMutability": "view",
      "type": "function"
    },
    {
      "constant": false,
      "inputs": [
        {
          "internalType": "string",
          "name": "_videoHash",
          "type": "string"
        },
        {
          "internalType": "string",
          "name": "_title",
          "type": "string"
        },
        {
          "internalType": "string",
          "name": "_description",
          "type": "string"
        },
        {
          "internalType": "string",
          "name": "_imageHash",
          "type": "string"
        },
        {
          "internalType": "uint256",
          "name": "_fee",
          "type": "uint256"
        }
      ],
      "name": "uploadVideo",
      "outputs": [],
      "payable": false,
      "stateMutability": "nonpayable",
      "type": "function"
    },
    {
      "constant": false,
      "inputs": [
        {
          "internalType": "uint256",
          "name": "_id",
          "type": "uint256"
        }
      ],
      "name": "tipVideo",
      "outputs": [],
      "payable": true,
      "stateMutability": "payable",
      "type": "function"
    }
  ],
  "bytecode": "0x6080604052600080556040518060400160405280600481526020017f444353530000000000000000000000000000000000000000000000000000000081525060019080519060200190620000559291906200006a565b503480156200006357600080fd5b5062000119565b828054600181600116156101000203166002900490600052602060002090601f016020900481019282601f10620000ad57805160ff1916838001178555620000de565b82800160010185558215620000de579182015b82811115620000dd578251825591602001919060010190620000c0565b5b509050620000ed9190620000f1565b5090565b6200011691905b8082111562000112576000816000905550600101620000f8565b5090565b90565b6115cb80620001296000396000f3fe60806040526004361061004a5760003560e01c806306fdde031461004f57806342dbe27f146100df578063d6fac0011461010d578063e6821bf5146103a4578063ebec7352146105e4575b600080fd5b34801561005b57600080fd5b5061006461060f565b6040518080602001828103825283818151815260200191508051906020019080838360005b838110156100a4578082015181840152602081019050610089565b50505050905090810190601f1680156100d15780820380516001836020036101000a031916815260200191505b509250505060405180910390f35b61010b600480360360208110156100f557600080fd5b81019080803590602001909291905050506106ad565b005b34801561011957600080fd5b506103a2600480360360a081101561013057600080fd5b810190808035906020019064010000000081111561014d57600080fd5b82018360208201111561015f57600080fd5b8035906020019184600183028401116401000000008311171561018157600080fd5b91908080601f016020809104026020016040519081016040528093929190818152602001838380828437600081840152601f19601f820116905080830192505050505050509192919290803590602001906401000000008111156101e457600080fd5b8201836020820111156101f657600080fd5b8035906020019184600183028401116401000000008311171561021857600080fd5b91908080601f016020809104026020016040519081016040528093929190818152602001838380828437600081840152601f19601f8201169050808301925050505050505091929192908035906020019064010000000081111561027b57600080fd5b82018360208201111561028d57600080fd5b803590602001918460018302840111640100000000831117156102af57600080fd5b91908080601f016020809104026020016040519081016040528093929190818152602001838380828437600081840152601f19601f8201169050808301925050505050505091929192908035906020019064010000000081111561031257600080fd5b82018360208201111561032457600080fd5b8035906020019184600183028401116401000000008311171561034657600080fd5b91908080601f016020809104026020016040519081016040528093929190818152602001838380828437600081840152601f19601f82011690508083019250505050505050919291929080359060200190929190505050610c41565b005b3480156103b057600080fd5b506103dd600480360360208110156103c757600080fd5b81019080803590602001909291905050506111c8565b60405180898152602001806020018060200180602001806020018881526020018781526020018673ffffffffffffffffffffffffffffffffffffffff1673ffffffffffffffffffffffffffffffffffffffff16815260200185810385528c818151815260200191508051906020019080838360005b8381101561046d578082015181840152602081019050610452565b50505050905090810190601f16801561049a5780820380516001836020036101000a031916815260200191505b5085810384528b818151815260200191508051906020019080838360005b838110156104d35780820151818401526020810190506104b8565b50505050905090810190601f1680156105005780820380516001836020036101000a031916815260200191505b5085810383528a818151815260200191508051906020019080838360005b8381101561053957808201518184015260208101905061051e565b50505050905090810190601f1680156105665780820380516001836020036101000a031916815260200191505b50858103825289818151815260200191508051906020019080838360005b8381101561059f578082015181840152602081019050610584565b50505050905090810190601f1680156105cc5780820380516001836020036101000a031916815260200191505b509c5050505050505050505050505060405180910390f35b3480156105f057600080fd5b506105f9611490565b6040518082815260200191505060405180910390f35b60018054600181600116156101000203166002900480601f0160208091040260200160405190810160405280929190818152602001828054600181600116156101000203166002900480156106a55780601f1061067a576101008083540402835291602001916106a5565b820191906000526020600020905b81548152906001019060200180831161068857829003601f168201915b505050505081565b6000811180156106bf57506000548111155b610731576040517f08c379a000000000000000000000000000000000000000000000000000000000815260040180806020018281038252600f8152602001807f496e76616c696420766964656f4964000000000000000000000000000000000081525060200191505060405180910390fd5b610739611496565b600260008381526020019081526020016000206040518061010001604052908160008201548152602001600182018054600181600116156101000203166002900480601f0160208091040260200160405190810160405280929190818152602001828054600181600116156101000203166002900480156107fb5780601f106107d0576101008083540402835291602001916107fb565b820191906000526020600020905b8154815290600101906020018083116107de57829003601f168201915b50505050508152602001600282018054600181600116156101000203166002900480601f01602080910402602001604051908101604052809291908181526020018280546001816001161561010002031660029004801561089d5780601f106108725761010080835404028352916020019161089d565b820191906000526020600020905b81548152906001019060200180831161088057829003601f168201915b50505050508152602001600382018054600181600116156101000203166002900480601f01602080910402602001604051908101604052809291908181526020018280546001816001161561010002031660029004801561093f5780601f106109145761010080835404028352916020019161093f565b820191906000526020600020905b81548152906001019060200180831161092257829003601f168201915b50505050508152602001600482018054600181600116156101000203166002900480601f0160208091040260200160405190810160405280929190818152602001828054600181600116156101000203166002900480156109e15780601f106109b6576101008083540402835291602001916109e1565b820191906000526020600020905b8154815290600101906020018083116109c457829003601f168201915b5050505050815260200160058201548152602001600682015481526020016007820160009054906101000a900473ffffffffffffffffffffffffffffffffffffffff1673ffffffffffffffffffffffffffffffffffffffff1673ffffffffffffffffffffffffffffffffffffffff1681525050905060008160a001519050803414610ad4576040517f08c379a00000000000000000000000000000000000000000000000000000000081526004018080602001828103825260188152602001807f5061796d656e74206e6f7420657175616c20746f20666565000000000000000081525060200191505060405180910390fd5b60008260e0015190508073ffffffffffffffffffffffffffffffffffffffff166108fc349081150290604051600060405180830381858888f19350505050158015610b23573d6000803e3d6000fd5b508160026000868152602001908152602001600020600601540160026000868152602001908152602001600020600601819055507f892d20c2184e18bf69a7e22ea8d8443e0a58443be73bcf88f8735b06320a16c6848460200151848460405180858152602001806020018481526020018373ffffffffffffffffffffffffffffffffffffffff1673ffffffffffffffffffffffffffffffffffffffff168152602001828103825285818151815260200191508051906020019080838360005b83811015610bfe578082015181840152602081019050610be3565b50505050905090810190601f168015610c2b5780820380516001836020036101000a031916815260200191505b509550505050505060405180910390a150505050565b6000855111610cb8576040517f08c379a000000000000000000000000000000000000000000000000000000000815260040180806020018281038252600f8152602001807f456d70747920766964656f48617368000000000000000000000000000000000081525060200191505060405180910390fd5b6000845111610d2f576040517f08c379a000000000000000000000000000000000000000000000000000000000815260040180806020018281038252600b8152602001807f456d707479205469746c6500000000000000000000000000000000000000000081525060200191505060405180910390fd5b6000835111610da6576040517f08c379a00000000000000000000000000000000000000000000000000000000081526004018080602001828103825260118152602001807f456d707479204465736372697074696f6e00000000000000000000000000000081525060200191505060405180910390fd5b600073ffffffffffffffffffffffffffffffffffffffff163373ffffffffffffffffffffffffffffffffffffffff161415610e49576040517f08c379a000000000000000000000000000000000000000000000000000000000815260040180806020018281038252600d8152602001807f456d70747920416464726573730000000000000000000000000000000000000081525060200191505060405180910390fd5b6001600054016000819055506040518061010001604052806000548152602001868152602001848152602001858152602001838152602001828152602001600081526020013373ffffffffffffffffffffffffffffffffffffffff168152506002600080548152602001908152602001600020600082015181600001556020820151816001019080519060200190610ee29291906114f1565b506040820151816002019080519060200190610eff9291906114f1565b506060820151816003019080519060200190610f1c9291906114f1565b506080820151816004019080519060200190610f399291906114f1565b5060a0820151816005015560c0820151816006015560e08201518160070160006101000a81548173ffffffffffffffffffffffffffffffffffffffff021916908373ffffffffffffffffffffffffffffffffffffffff1602179055509050507f5d836ce0b5e60066b98cc12dd2546b9e0f06a85f4f865381e435404d10f699bf60005486858786863360405180888152602001806020018060200180602001806020018781526020018673ffffffffffffffffffffffffffffffffffffffff1673ffffffffffffffffffffffffffffffffffffffff16815260200185810385528b818151815260200191508051906020019080838360005b8381101561104c578082015181840152602081019050611031565b50505050905090810190601f1680156110795780820380516001836020036101000a031916815260200191505b5085810384528a818151815260200191508051906020019080838360005b838110156110b2578082015181840152602081019050611097565b50505050905090810190601f1680156110df5780820380516001836020036101000a031916815260200191505b50858103835289818151815260200191508051906020019080838360005b838110156111185780820151818401526020810190506110fd565b50505050905090810190601f1680156111455780820380516001836020036101000a031916815260200191505b50858103825288818151815260200191508051906020019080838360005b8381101561117e578082015181840152602081019050611163565b50505050905090810190601f1680156111ab5780820380516001836020036101000a031916815260200191505b509b50505050505050505050505060405180910390a15050505050565b6002602052806000526040600020600091509050806000015490806001018054600181600116156101000203166002900480601f01602080910402602001604051908101604052809291908181526020018280546001816001161561010002031660029004801561127a5780601f1061124f5761010080835404028352916020019161127a565b820191906000526020600020905b81548152906001019060200180831161125d57829003601f168201915b505050505090806002018054600181600116156101000203166002900480601f0160208091040260200160405190810160405280929190818152602001828054600181600116156101000203166002900480156113185780601f106112ed57610100808354040283529160200191611318565b820191906000526020600020905b8154815290600101906020018083116112fb57829003601f168201915b505050505090806003018054600181600116156101000203166002900480601f0160208091040260200160405190810160405280929190818152602001828054600181600116156101000203166002900480156113b65780601f1061138b576101008083540402835291602001916113b6565b820191906000526020600020905b81548152906001019060200180831161139957829003601f168201915b505050505090806004018054600181600116156101000203166002900480601f0160208091040260200160405190810160405280929190818152602001828054600181600116156101000203166002900480156114545780601f1061142957610100808354040283529160200191611454565b820191906000526020600020905b81548152906001019060200180831161143757829003601f168201915b5050505050908060050154908060060154908060070160009054906101000a900473ffffffffffffffffffffffffffffffffffffffff16905088565b60005481565b60405180610100016040528060008152602001606081526020016060815260200160608152602001606081526020016000815260200160008152602001600073ffffffffffffffffffffffffffffffffffffffff1681525090565b828054600181600116156101000203166002900490600052602060002090601f016020900481019282601f1061153257805160ff1916838001178555611560565b82800160010185558215611560579182015b8281111561155f578251825591602001919060010190611544565b5b50905061156d9190611571565b5090565b61159391905b8082111561158f576000816000905550600101611577565b5090565b9056fea265627a7a7231582009219b18f9cd159086b03c5686ab0f78b9a32eb2ea3aaa83d71e725f7d3c2b5964736f6c63430005100032",
  "source": "pragma solidity ^0.5.0;\n\ncontract DCSS {\n  uint public numVideos = 0;\n  string public name = \"DCSS\";\n  mapping(uint => Video) public videos;\n  struct Video {\n    uint id;\n    string hash;//IPFS Hash\n    string description;\n    string title;\n    string image;\n    uint256 fee;\n    uint256 earned;\n    address payable creator;\n  }\n\n  event VideoUploaded(\n    uint id,\n    string hash,\n    string description,\n    string title,\n    string image,\n    uint256 fee,\n    address payable creator\n  );\n\n  event VideoTipped(\n    uint id,\n    string hash,\n    uint256 fee,\n    address payable creator\n  );\n\n\n  constructor() public {\n  }\n\n  function uploadVideo(string memory _videoHash, string memory _title,string memory _description,string memory _imageHash,uint256 _fee) public {\n    // Make sure the video hash exists\n    require(bytes(_videoHash).length > 0,'Empty videoHash');\n    // Make sure video title exists\n    require(bytes(_title).length > 0,'Empty Title');\n    //Make sure description exists \n    require(bytes(_description).length > 0,'Empty Description');\n    // Make sure uploader address exists\n    require(msg.sender != address(0), 'Empty Address');\n\n    // Increment video id\n    numVideos = numVideos + 1;\n\n    // Add video to the contract\n    videos[numVideos] = Video(numVideos, _videoHash,_description, _title,_imageHash,_fee,0,(msg.sender));\n    // Trigger an event\n    emit VideoUploaded(numVideos, _videoHash,_description, _title,_imageHash,_fee,(msg.sender));\n  }\n\n\n  function tipVideo(uint _id) public payable{\n      require(_id > 0 && _id <= numVideos, 'Invalid videoId');\n      Video memory _Video = videos[_id];\n      uint _fee = _Video.fee;\n      require(msg.value == _fee,'Payment not equal to fee');\n\n       address payable _creator = _Video.creator;\n      _creator.transfer(msg.value);\n      videos[_id].earned = videos[_id].earned + _fee;\n      emit VideoTipped(_id,_Video.hash,_fee,_creator);\n    }\n}",
  "sourcePath": "/home/apoorv/D/blockp/src/contracts/DCSS.sol",
  "compiler": {
    "name": "solc",
    "version": "0.5.16+commit.9c3226ce.Emscripten.clang"
  },
  "schemaVersion": "3.4.7",
  "updatedAt": "2022-04-22T17:19:00.475Z",
  "networkType": "ethereum",
  "devdoc": {
    "methods": {}
  },
  "userdoc": {
    "methods": {}
  }
}