{
  "contractName": "DCSS",
  "abi": [
    {
      "inputs": [],
      "payable": false,
      "stateMutability": "nonpayable",
      "type": "constructor"
    },
    {
      "anonymous": false,
      "inputs": [
        {
          "indexed": false,
          "internalType": "uint256",
          "name": "id",
          "type": "uint256"
        },
        {
          "indexed": false,
          "internalType": "string",
          "name": "hash",
          "type": "string"
        },
        {
          "indexed": false,
          "internalType": "uint256",
          "name": "fee",
          "type": "uint256"
        },
        {
          "indexed": false,
          "internalType": "address payable",
          "name": "creator",
          "type": "address"
        }
      ],
      "name": "VideoTipped",
      "type": "event"
    },
    {
      "anonymous": false,
      "inputs": [
        {
          "indexed": false,
          "internalType": "uint256",
          "name": "id",
          "type": "uint256"
        },
        {
          "indexed": false,
          "internalType": "string",
          "name": "hash",
          "type": "string"
        },
        {
          "indexed": false,
          "internalType": "string",
          "name": "description",
          "type": "string"
        },
        {
          "indexed": false,
          "internalType": "string",
          "name": "title",
          "type": "string"
        },
        {
          "indexed": false,
          "internalType": "string",
          "name": "image",
          "type": "string"
        },
        {
          "indexed": false,
          "internalType": "uint256",
          "name": "fee",
          "type": "uint256"
        },
        {
          "indexed": false,
          "internalType": "address payable",
          "name": "creator",
          "type": "address"
        }
      ],
      "name": "VideoUploaded",
      "type": "event"
    },
    {
      "constant": true,
      "inputs": [],
      "name": "name",
      "outputs": [
        {
          "internalType": "string",
          "name": "",
          "type": "string"
        }
      ],
      "payable": false,
      "stateMutability": "view",
      "type": "function"
    },
    {
      "constant": true,
      "inputs": [],
      "name": "numVideos",
      "outputs": [
        {
          "internalType": "uint256",
          "name": "",
          "type": "uint256"
        }
      ],
      "payable": false,
      "stateMutability": "view",
      "type": "function"
    },
    {
      "constant": true,
      "inputs": [
        {
          "internalType": "address",
          "name": "",
          "type": "address"
        }
      ],
      "name": "numVideosofCreator",
      "outputs": [
        {
          "internalType": "uint256",
          "name": "",
          "type": "uint256"
        }
      ],
      "payable": false,
      "stateMutability": "view",
      "type": "function"
    },
    {
      "constant": true,
      "inputs": [
        {
          "internalType": "uint256",
          "name": "",
          "type": "uint256"
        }
      ],
      "name": "videos",
      "outputs": [
        {
          "internalType": "uint256",
          "name": "id",
          "type": "uint256"
        },
        {
          "internalType": "string",
          "name": "hash",
          "type": "string"
        },
        {
          "internalType": "string",
          "name": "description",
          "type": "string"
        },
        {
          "internalType": "string",
          "name": "title",
          "type": "string"
        },
        {
          "internalType": "string",
          "name": "image",
          "type": "string"
        },
        {
          "internalType": "uint256",
          "name": "fee",
          "type": "uint256"
        },
        {
          "internalType": "uint256",
          "name": "timesTipped",
          "type": "uint256"
        },
        {
          "internalType": "address payable",
          "name": "creator",
          "type": "address"
        }
      ],
      "payable": false,
      "stateMutability": "view",
      "type": "function"
    },
    {
      "constant": true,
      "inputs": [
        {
          "internalType": "address",
          "name": "",
          "type": "address"
        },
        {
          "internalType": "uint256",
          "name": "",
          "type": "uint256"
        }
      ],
      "name": "videosOfCreator",
      "outputs": [
        {
          "internalType": "uint256",
          "name": "",
          "type": "uint256"
        }
      ],
      "payable": false,
      "stateMutability": "view",
      "type": "function"
    },
    {
      "constant": false,
      "inputs": [
        {
          "internalType": "string",
          "name": "_videoHash",
          "type": "string"
        },
        {
          "internalType": "string",
          "name": "_title",
          "type": "string"
        },
        {
          "internalType": "string",
          "name": "_description",
          "type": "string"
        },
        {
          "internalType": "string",
          "name": "_imageHash",
          "type": "string"
        },
        {
          "internalType": "uint256",
          "name": "_fee",
          "type": "uint256"
        }
      ],
      "name": "uploadVideo",
      "outputs": [],
      "payable": false,
      "stateMutability": "nonpayable",
      "type": "function"
    },
    {
      "constant": false,
      "inputs": [
        {
          "internalType": "uint256",
          "name": "_id",
          "type": "uint256"
        }
      ],
      "name": "tipVideo",
      "outputs": [],
      "payable": true,
      "stateMutability": "payable",
      "type": "function"
    },
    {
      "constant": true,
      "inputs": [
        {
          "internalType": "address",
          "name": "_address",
          "type": "address"
        }
      ],
      "name": "getCreatorData",
      "outputs": [
        {
          "internalType": "uint256[]",
          "name": "",
          "type": "uint256[]"
        }
      ],
      "payable": false,
      "stateMutability": "view",
      "type": "function"
    }
  ],
  "bytecode": "0x6080604052600080556040518060400160405280600481526020017f444353530000000000000000000000000000000000000000000000000000000081525060019080519060200190620000559291906200006a565b503480156200006357600080fd5b5062000119565b828054600181600116156101000203166002900490600052602060002090601f016020900481019282601f10620000ad57805160ff1916838001178555620000de565b82800160010185558215620000de579182015b82811115620000dd578251825591602001919060010190620000c0565b5b509050620000ed9190620000f1565b5090565b6200011691905b8082111562000112576000816000905550600101620000f8565b5090565b90565b6119e880620001296000396000f3fe60806040526004361061007b5760003560e01c80639f9aabac1161004e5780639f9aabac14610253578063d6fac001146102b8578063e6821bf51461054f578063ebec73521461078f5761007b565b806306fdde03146100805780630d64e6971461011057806342dbe27f146101b65780638caca392146101e4575b600080fd5b34801561008c57600080fd5b506100956107ba565b6040518080602001828103825283818151815260200191508051906020019080838360005b838110156100d55780820151818401526020810190506100ba565b50505050905090810190601f1680156101025780820380516001836020036101000a031916815260200191505b509250505060405180910390f35b34801561011c57600080fd5b5061015f6004803603602081101561013357600080fd5b81019080803573ffffffffffffffffffffffffffffffffffffffff169060200190929190505050610858565b6040518080602001828103825283818151815260200191508051906020019060200280838360005b838110156101a2578082015181840152602081019050610187565b505050509050019250505060405180910390f35b6101e2600480360360208110156101cc57600080fd5b8101908080359060200190929190505050610992565b005b3480156101f057600080fd5b5061023d6004803603604081101561020757600080fd5b81019080803573ffffffffffffffffffffffffffffffffffffffff16906020019092919080359060200190929190505050610f27565b6040518082815260200191505060405180910390f35b34801561025f57600080fd5b506102a26004803603602081101561027657600080fd5b81019080803573ffffffffffffffffffffffffffffffffffffffff169060200190929190505050610f55565b6040518082815260200191505060405180910390f35b3480156102c457600080fd5b5061054d600480360360a08110156102db57600080fd5b81019080803590602001906401000000008111156102f857600080fd5b82018360208201111561030a57600080fd5b8035906020019184600183028401116401000000008311171561032c57600080fd5b91908080601f016020809104026020016040519081016040528093929190818152602001838380828437600081840152601f19601f8201169050808301925050505050505091929192908035906020019064010000000081111561038f57600080fd5b8201836020820111156103a157600080fd5b803590602001918460018302840111640100000000831117156103c357600080fd5b91908080601f016020809104026020016040519081016040528093929190818152602001838380828437600081840152601f19601f8201169050808301925050505050505091929192908035906020019064010000000081111561042657600080fd5b82018360208201111561043857600080fd5b8035906020019184600183028401116401000000008311171561045a57600080fd5b91908080601f016020809104026020016040519081016040528093929190818152602001838380828437600081840152601f19601f820116905080830192505050505050509192919290803590602001906401000000008111156104bd57600080fd5b8201836020820111156104cf57600080fd5b803590602001918460018302840111640100000000831117156104f157600080fd5b91908080601f016020809104026020016040519081016040528093929190818152602001838380828437600081840152601f19601f82011690508083019250505050505050919291929080359060200190929190505050610f6d565b005b34801561055b57600080fd5b506105886004803603602081101561057257600080fd5b81019080803590602001909291905050506115e5565b60405180898152602001806020018060200180602001806020018881526020018781526020018673ffffffffffffffffffffffffffffffffffffffff1673ffffffffffffffffffffffffffffffffffffffff16815260200185810385528c818151815260200191508051906020019080838360005b838110156106185780820151818401526020810190506105fd565b50505050905090810190601f1680156106455780820380516001836020036101000a031916815260200191505b5085810384528b818151815260200191508051906020019080838360005b8381101561067e578082015181840152602081019050610663565b50505050905090810190601f1680156106ab5780820380516001836020036101000a031916815260200191505b5085810383528a818151815260200191508051906020019080838360005b838110156106e45780820151818401526020810190506106c9565b50505050905090810190601f1680156107115780820380516001836020036101000a031916815260200191505b50858103825289818151815260200191508051906020019080838360005b8381101561074a57808201518184015260208101905061072f565b50505050905090810190601f1680156107775780820380516001836020036101000a031916815260200191505b509c5050505050505050505050505060405180910390f35b34801561079b57600080fd5b506107a46118ad565b6040518082815260200191505060405180910390f35b60018054600181600116156101000203166002900480601f0160208091040260200160405190810160405280929190818152602001828054600181600116156101000203166002900480156108505780601f1061082557610100808354040283529160200191610850565b820191906000526020600020905b81548152906001019060200180831161083357829003601f168201915b505050505081565b6060600073ffffffffffffffffffffffffffffffffffffffff168273ffffffffffffffffffffffffffffffffffffffff1614156108fd576040517f08c379a000000000000000000000000000000000000000000000000000000000815260040180806020018281038252600d8152602001807f456d70747920416464726573730000000000000000000000000000000000000081525060200191505060405180910390fd5b600360008373ffffffffffffffffffffffffffffffffffffffff1673ffffffffffffffffffffffffffffffffffffffff16815260200190815260200160002080548060200260200160405190810160405280929190818152602001828054801561098657602002820191906000526020600020905b815481526020019060010190808311610972575b50505050509050919050565b6000811180156109a457506000548111155b610a16576040517f08c379a000000000000000000000000000000000000000000000000000000000815260040180806020018281038252600f8152602001807f496e76616c696420766964656f4964000000000000000000000000000000000081525060200191505060405180910390fd5b610a1e6118b3565b600260008381526020019081526020016000206040518061010001604052908160008201548152602001600182018054600181600116156101000203166002900480601f016020809104026020016040519081016040528092919081815260200182805460018160011615610100020316600290048015610ae05780601f10610ab557610100808354040283529160200191610ae0565b820191906000526020600020905b815481529060010190602001808311610ac357829003601f168201915b50505050508152602001600282018054600181600116156101000203166002900480601f016020809104026020016040519081016040528092919081815260200182805460018160011615610100020316600290048015610b825780601f10610b5757610100808354040283529160200191610b82565b820191906000526020600020905b815481529060010190602001808311610b6557829003601f168201915b50505050508152602001600382018054600181600116156101000203166002900480601f016020809104026020016040519081016040528092919081815260200182805460018160011615610100020316600290048015610c245780601f10610bf957610100808354040283529160200191610c24565b820191906000526020600020905b815481529060010190602001808311610c0757829003601f168201915b50505050508152602001600482018054600181600116156101000203166002900480601f016020809104026020016040519081016040528092919081815260200182805460018160011615610100020316600290048015610cc65780601f10610c9b57610100808354040283529160200191610cc6565b820191906000526020600020905b815481529060010190602001808311610ca957829003601f168201915b5050505050815260200160058201548152602001600682015481526020016007820160009054906101000a900473ffffffffffffffffffffffffffffffffffffffff1673ffffffffffffffffffffffffffffffffffffffff1673ffffffffffffffffffffffffffffffffffffffff1681525050905060008160a001519050803414610db9576040517f08c379a00000000000000000000000000000000000000000000000000000000081526004018080602001828103825260188152602001807f5061796d656e74206e6f7420657175616c20746f20666565000000000000000081525060200191505060405180910390fd5b60008260e0015190508073ffffffffffffffffffffffffffffffffffffffff166108fc349081150290604051600060405180830381858888f19350505050158015610e08573d6000803e3d6000fd5b50600160026000868152602001908152602001600020600601540160026000868152602001908152602001600020600601819055507f892d20c2184e18bf69a7e22ea8d8443e0a58443be73bcf88f8735b06320a16c6848460200151848460405180858152602001806020018481526020018373ffffffffffffffffffffffffffffffffffffffff1673ffffffffffffffffffffffffffffffffffffffff168152602001828103825285818151815260200191508051906020019080838360005b83811015610ee4578082015181840152602081019050610ec9565b50505050905090810190601f168015610f115780820380516001836020036101000a031916815260200191505b509550505050505060405180910390a150505050565b60036020528160005260406000208181548110610f4057fe5b90600052602060002001600091509150505481565b60046020528060005260406000206000915090505481565b6000855111610fe4576040517f08c379a000000000000000000000000000000000000000000000000000000000815260040180806020018281038252600f8152602001807f456d70747920766964656f48617368000000000000000000000000000000000081525060200191505060405180910390fd5b600084511161105b576040517f08c379a000000000000000000000000000000000000000000000000000000000815260040180806020018281038252600b8152602001807f456d707479205469746c6500000000000000000000000000000000000000000081525060200191505060405180910390fd5b60008351116110d2576040517f08c379a00000000000000000000000000000000000000000000000000000000081526004018080602001828103825260118152602001807f456d707479204465736372697074696f6e00000000000000000000000000000081525060200191505060405180910390fd5b600073ffffffffffffffffffffffffffffffffffffffff163373ffffffffffffffffffffffffffffffffffffffff161415611175576040517f08c379a000000000000000000000000000000000000000000000000000000000815260040180806020018281038252600d8152602001807f456d70747920416464726573730000000000000000000000000000000000000081525060200191505060405180910390fd5b6001600054016000819055506040518061010001604052806000548152602001868152602001848152602001858152602001838152602001828152602001600081526020013373ffffffffffffffffffffffffffffffffffffffff16815250600260008054815260200190815260200160002060008201518160000155602082015181600101908051906020019061120e92919061190e565b50604082015181600201908051906020019061122b92919061190e565b50606082015181600301908051906020019061124892919061190e565b50608082015181600401908051906020019061126592919061190e565b5060a0820151816005015560c0820151816006015560e08201518160070160006101000a81548173ffffffffffffffffffffffffffffffffffffffff021916908373ffffffffffffffffffffffffffffffffffffffff160217905550905050600360003373ffffffffffffffffffffffffffffffffffffffff1673ffffffffffffffffffffffffffffffffffffffff16815260200190815260200160002060005490806001815401808255809150509060018203906000526020600020016000909192909190915055506001600460003373ffffffffffffffffffffffffffffffffffffffff1673ffffffffffffffffffffffffffffffffffffffff1681526020019081526020016000205401600460003373ffffffffffffffffffffffffffffffffffffffff1673ffffffffffffffffffffffffffffffffffffffff168152602001908152602001600020819055507f5d836ce0b5e60066b98cc12dd2546b9e0f06a85f4f865381e435404d10f699bf60005486858786863360405180888152602001806020018060200180602001806020018781526020018673ffffffffffffffffffffffffffffffffffffffff1673ffffffffffffffffffffffffffffffffffffffff16815260200185810385528b818151815260200191508051906020019080838360005b8381101561146957808201518184015260208101905061144e565b50505050905090810190601f1680156114965780820380516001836020036101000a031916815260200191505b5085810384528a818151815260200191508051906020019080838360005b838110156114cf5780820151818401526020810190506114b4565b50505050905090810190601f1680156114fc5780820380516001836020036101000a031916815260200191505b50858103835289818151815260200191508051906020019080838360005b8381101561153557808201518184015260208101905061151a565b50505050905090810190601f1680156115625780820380516001836020036101000a031916815260200191505b50858103825288818151815260200191508051906020019080838360005b8381101561159b578082015181840152602081019050611580565b50505050905090810190601f1680156115c85780820380516001836020036101000a031916815260200191505b509b50505050505050505050505060405180910390a15050505050565b6002602052806000526040600020600091509050806000015490806001018054600181600116156101000203166002900480601f0160208091040260200160405190810160405280929190818152602001828054600181600116156101000203166002900480156116975780601f1061166c57610100808354040283529160200191611697565b820191906000526020600020905b81548152906001019060200180831161167a57829003601f168201915b505050505090806002018054600181600116156101000203166002900480601f0160208091040260200160405190810160405280929190818152602001828054600181600116156101000203166002900480156117355780601f1061170a57610100808354040283529160200191611735565b820191906000526020600020905b81548152906001019060200180831161171857829003601f168201915b505050505090806003018054600181600116156101000203166002900480601f0160208091040260200160405190810160405280929190818152602001828054600181600116156101000203166002900480156117d35780601f106117a8576101008083540402835291602001916117d3565b820191906000526020600020905b8154815290600101906020018083116117b657829003601f168201915b505050505090806004018054600181600116156101000203166002900480601f0160208091040260200160405190810160405280929190818152602001828054600181600116156101000203166002900480156118715780601f1061184657610100808354040283529160200191611871565b820191906000526020600020905b81548152906001019060200180831161185457829003601f168201915b5050505050908060050154908060060154908060070160009054906101000a900473ffffffffffffffffffffffffffffffffffffffff16905088565b60005481565b60405180610100016040528060008152602001606081526020016060815260200160608152602001606081526020016000815260200160008152602001600073ffffffffffffffffffffffffffffffffffffffff1681525090565b828054600181600116156101000203166002900490600052602060002090601f016020900481019282601f1061194f57805160ff191683800117855561197d565b8280016001018555821561197d579182015b8281111561197c578251825591602001919060010190611961565b5b50905061198a919061198e565b5090565b6119b091905b808211156119ac576000816000905550600101611994565b5090565b9056fea265627a7a7231582013be49c1d3168ba67f2044dc76b39bf317a6f5d0db2d16bdff9850e2d55bd01364736f6c63430005100032",
  "source": "pragma solidity ^0.5.0;\n\ncontract DCSS {\n  uint public numVideos = 0;\n  string public name = \"DCSS\";\n  mapping(uint => Video) public videos;\n  mapping (address => uint[]) public videosOfCreator;\n  mapping (address => uint)public numVideosofCreator;\n  struct Video {\n    uint id;\n    string hash;//IPFS Hash\n    string description;\n    string title;\n    string image;\n    uint256 fee;\n    uint256 timesTipped;\n    address payable creator;\n  }\n\n  event VideoUploaded(\n    uint id,\n    string hash,\n    string description,\n    string title,\n    string image,\n    uint256 fee,\n    address payable creator\n  );\n\n  event VideoTipped(\n    uint id,\n    string hash,\n    uint256 fee,\n    address payable creator\n  );\n\n\n  constructor() public {\n  }\n\n  function uploadVideo(string memory _videoHash, string memory _title,string memory _description,string memory _imageHash,uint256 _fee) public {\n    // Make sure the video hash exists\n    require(bytes(_videoHash).length > 0,'Empty videoHash');\n    // Make sure video title exists\n    require(bytes(_title).length > 0,'Empty Title');\n    //Make sure description exists \n    require(bytes(_description).length > 0,'Empty Description');\n    // Make sure uploader address exists\n    require(msg.sender != address(0), 'Empty Address');\n\n    // Increment video id\n    numVideos = numVideos + 1;\n\n    // Add video to the contract\n    videos[numVideos] = Video(numVideos, _videoHash,_description, _title,_imageHash,_fee,0,(msg.sender));\n    videosOfCreator[msg.sender].push(numVideos);\n    numVideosofCreator[msg.sender] = numVideosofCreator[msg.sender] + 1;\n    // Trigger an event\n    emit VideoUploaded(numVideos, _videoHash,_description, _title,_imageHash,_fee,(msg.sender));\n  }\n\n\n  function tipVideo(uint _id) public payable{\n\n      require(_id > 0 && _id <= numVideos, 'Invalid videoId');\n      Video memory _Video = videos[_id];\n      uint _fee = _Video.fee;\n      require(msg.value == _fee,'Payment not equal to fee');\n\n       address payable _creator = _Video.creator;\n      _creator.transfer(msg.value);\n      videos[_id].timesTipped = videos[_id].timesTipped + 1;\n      emit VideoTipped(_id,_Video.hash,_fee,_creator);\n  }\n\n  function getCreatorData(address _address) public view returns(uint [] memory){\n    //Make sure address is valid\n    require(_address != address(0),'Empty Address');\n\n    return videosOfCreator[_address];\n  }\n}",
  "sourcePath": "/home/apoorv/D/blockp/src/contracts/DCSS.sol",
  "compiler": {
    "name": "solc",
    "version": "0.5.16+commit.9c3226ce.Emscripten.clang"
  },
  "schemaVersion": "3.4.7",
  "updatedAt": "2022-04-26T17:08:30.321Z",
  "networkType": "ethereum",
  "devdoc": {
    "methods": {}
  },
  "userdoc": {
    "methods": {}
  }
}